:020000040800F2
:10000000900C00205D010008A31600089F16000850
:10001000A1160008450300088D2500080000000017
:10002000000000000000000000000000A51700080C
:100030009916000800000000A516000885180008A1
:1000400077010008770100087701000877010008B0
:1000500077010008770100087701000877010008A0
:100060007701000877010008770100087701000890
:100070007701000877010008770100087701000880
:100080007701000861160008770100087701000871
:100090007701000877010008770100087701000860
:1000A0007701000877010008770100087701000850
:1000B000811900087701000877010008770100081E
:1000C0007701000800000000000000007701000830
:1000D00077010008770100088125000877010008F2
:1000E0007701000877010008770100087701000810
:1000F0007701000877010008770100080000000080
:10010000000000000000000077010008000000006F
:10011000770100080000000000000000000000005F
:1001200077010008770100087701000877010008CF
:1001300077010008770100087701000877010008BF
:100140007701000877010008DFF80CD000F08CF888
:1001500000480047F9250008900C00200648804719
:1001600006480047FEE7FEE7FEE7FEE7FEE7FEE79C
:10017000FEE7FEE7FEE7FEE7051900084901000873
:100180002DE9F05F0546002092469B4688460646CC
:10019000814640241BE0284641464746224600F05F
:1001A00020F853465A46C01A914110D311461846BA
:1001B000224600F04AF82D1A67EB01084F46224606
:1001C0000120002100F041F817EB00094E41201EEC
:1001D000A4F10104DFDC484631462A464346BDE827
:1001E000F09F202A04DB203A21FA02F00021704718
:1001F00021FA02F3D040C2F120029140084319468F
:10020000704740EA01039B0703D009E008C9121FA9
:1002100008C0042AFAD203E011F8013B00F8013BC0
:10022000521EF9D27047D2B201E000F8012B491EEC
:10023000FBD270470022F6E710B513460A46044683
:100240001946FFF7F0FF204610BD202A04DB203AB4
:1002500000FA02F1002070479140C2F1200320FA19
:1002600003F3194390407047064C074D06E0E068E1
:1002700040F0010394E8070098471034AC42F6D3ED
:10028000FFF766FF642700088427000870B588B070
:1002900001F01AFC054607A9284801F0C7FD0446ED
:1002A000BFF35F8F85F31088200044D4244801F009
:1002B0009DFC01F009FC0346214A204992F8C80040
:1002C000C5060AD591F8885145F0100581F8885186
:1002D000D1F894516D1CC1F8945191F8885128437C
:1002E000BFF35F8F83F31088154B20264033D2F87D
:1002F000C050CDE90536CDE90352D2F8C420079BA2
:10030000CDE901320090C4EB041000EB400001EB9A
:1003100080000F232122B42101F0F6FB064601F0F4
:10032000D3FB054632462146044801F04FFEBFF399
:100330005F8F85F3108808B070BD00006801002051
:1003400004030020FEE7000010B5044621604FF4CE
:10035000827060600022A260E260226162614FF4FC
:100360000070A0610B48814201D1282000E02020CC
:10037000E06122626262A2620720E062204600F031
:1003800007FE08B101F089F92068016841F04001D9
:10039000016010BD0030014010B5044600F08AFA3B
:1003A00094F821000021022805D08020206484F8E0
:1003B0002010012010BD2068026822F00E020260A9
:1003C0002068026822F00102026094F848200123AC
:1003D00003FA02F0626C506084F8213084F8201037
:1003E000002010BD90F82110022903D08021016463
:1003F00001207047052180F821100068016821F074
:100400000101016000207047006C7047F8B5044698
:10041000002700974F484FF416510068B0FBF1F6E3
:10042000606C056894F84800082202FA00F129423D
:1004300012D020680168C94309070DD4016821F072
:100440000801016094F8480002FA00F1606C416014
:10045000206C40F00100206494F84810042088408B
:10046000284212D021680968C94349070DD4616C3C
:10047000486020680168890603D4016821F00401FE
:100480000160E16A09B12046884794F848100220CB
:10049000884028424FF001051AD021680968C943F5
:1004A000890715D4616C486094F82100052832D082
:1004B00020680168890607D4016821F00201016003
:1004C00084F8215084F82070A16A09B12046884739
:1004D000206C00283DD0206CC00714D0052084F883
:1004E00021002068016821F0010101600098401C92
:1004F0000090B04203D820680068C007F6D184F8A5
:10050000215084F82070A16B002922D001B0204630
:10051000BDE8F04008472068016821F00A01016049
:10052000E06A20B12068016821F00401016094F8BC
:10053000480029468540606C456084F8211084F8A5
:100540002070E16B002904D001B02046BDE8F040E6
:100550000847F8BD0000002070B5044600F0AAF975
:100560006CB11B4A2068142190420AD2194A0244F5
:10057000B2FBF1F18900A164174961640BE001202D
:1005800070BD134A52420244B2FBF1F18900A164EA
:100590000F49083961640221241D6177016843F61F
:1005A000F0729143D4E900231A43D4E902352B4376
:1005B0001A4323691A4363691A43A3691A430A4316
:1005C000026000202077E06301206077002070BD8A
:1005D00008040240F8FFFDBF000002402DE9F04191
:1005E0000446002594F8200001280DD0012684F847
:1005F000206094F821700020012F07D084F820009B
:1006000002252846BDE8F0810220FBE7022784F896
:1006100021702064204601F029F894F848008640B3
:10062000606C46602068016841F00A010160E06A80
:1006300020B12068016841F0040101602068016870
:1006400041F001010160DCE770B5044600F032F9C9
:100650000546601C02D004480078044400F02AF9E2
:10066000401BA042FAD370BD0400002010B500F07A
:100670002FF900F077F900F05BFD00F077FC0949F5
:10068000486820F0E06040F00070486000F00CF82E
:1006900000F0CAFF01F0D4F900F06AFCBDE8104098
:1006A00000F06EBC0000014030B585B0002401941C
:1006B0000294039404940D48816941F0040181611E
:1006C000806900F004000090094D002203212846B3
:1006D00000F0E8F8032101910122029203940491B1
:1006E00001A9284600F006F805B030BD0010024010
:1006F000000801402DE9F84F00220024DFF888911E
:100700004FF00F08A9F1040B09F1040AABF1040E34
:100710000126A6400B683340B34276D14D68B5F54B
:10072000881F2DD00DDC032D28D005DC45B3012D0D
:1007300019D0022D2AD11BE0112D16D0122D25D152
:1007400019E0B5F5081F1BD006DCB5F5901F17D0D2
:10075000B5F5041F1AD113E0B5F5441F10D0B5F557
:10076000481F13D10CE0CA6810E0CA68121D0DE0E2
:10077000CA6808320AE0CA680C3207E0002205E0C5
:100780008A683AB1012A08D008224661FF2B08D8AE
:10079000054608E04FF00402F8E74FF00802066152
:1007A000F4E700F1040502D84FEA840603E0A4F15F
:1007B00008064FEA86062F6808FA06FC27EA0C07A7
:1007C00002FA06F647EA06072F604D6815F4403F27
:1007D00053D02E4A956945F001059561926902F062
:1007E000010200922A4A24F0030505EB0206B568CF
:1007F0004FEA84724FEA127708FA07F225EA0205F7
:10080000244A904202D1002210E036E0224A90426F
:1008100001D101220AE0214A904201D1022205E0E1
:100820001F4A904201D1032200E00422BA402A4329
:10083000B260D9F800209A434D68ED0200D51A4302
:10084000C9F80020DAF800209A434D68AD0200D5BF
:100850001A43CAF80020DBF800209A434D68AD0324
:1008600000D51A43CBF80020DEF800209A434D68EB
:10087000ED0300D51A43CEF80020641C102CFFF4C1
:1008800047AFBDE8F88F00000804014000100240A7
:100890000000014000080140000C01400010014030
:1008A00000140140002A01D0016170470904016170
:1008B0007047000001488068704700000400002075
:1008C000024881680278114481607047040000206A
:1008D00010B50B48016841F480710160016841F472
:1008E00000710160016841F010010160032000F017
:1008F0007FF80F2000F006F800F026F8002010BD69
:100900000020024070B504460D4D4FF47A712878EE
:10091000B1FBF0F00B490968B1FBF0F000F0F4FB1B
:1009200008B1012070BD102C07D200222146501EB4
:1009300000F03EF86C60002070BD012070BD00002A
:1009400004000020000000207047002809DB00F0B0
:100950001F02012191404009800000F1E020C0F811
:100960008012704782B00A48816941F001018161BB
:10097000816901F001010191C16941F08051C161BA
:10098000C06900F080500190032002B000F030B840
:1009900000100240002809DB00F01F0201219140F5
:1009A0004009800000F1E020C0F80011704700000D
:1009B000F0B40D460D4B1B68C3F30223C3F10704CB
:1009C000042C00D90424191D072901D2002300E0BA
:1009D000DB1E012606FA04F1491E294099409E407B
:1009E000761E16403143F0BC01F0E6BD0CED00E090
:1009F00000F00701054A10684FF6FF03184040EA6F
:100A00000120034908431060704700000CED00E02E
:100A10000000FA052DE9F04704460D46002C17D0DA
:100A2000DFF83481D8F8000000F0C700A84211D2E6
:100A3000D8F8000020F0C7002843C8F80000D8F814
:100A4000000000F0C700A84204D00120BDE8F087F4
:100A50000120FBE72068414E810712D5400703D5EE
:100A6000706840F4E06070602078000703D570681B
:100A700040F4605070607068A16820F0F000084396
:100A800070602078C0072ED06068012808D0022846
:100A90000BD0032809D0316889070BD40120D5E792
:100AA0003168890306D40120D0E73168890101D477
:100AB0000120CBE7716821F0030101437160FFF76A
:100AC000F9FE074641F2883906E0FFF7F3FEC01B46
:100AD000484501D90320B9E77068616800F00C004F
:100AE000B0EB810FF1D1D8F8000000F0C700A842A8
:100AF0000ED9D8F8000020F0C7002843C8F800003D
:100B0000D8F8000000F0C700A84201D001209DE7FE
:100B10002078400705D57068E16820F4E06008435C
:100B200070602078000706D57068216920F4605055
:100B300040EAC100706000F03FF87168084AC1F3F4
:100B40000311515CC8400749086007480068FFF777
:100B5000D9FE00207AE70000002002400010024089
:100B60002C26000800000020080000200148006832
:100B7000704700000000002000B5FFF7F7FF0449B0
:100B80004968044AC1F30221515CC84000BD00001D
:100B9000001002403C26000800B5FFF7E7FF0449BB
:100BA0004968044AC1F3C221515CC84000BD00003D
:100BB000001002403C260008134A506810F00C0157
:100BC00012480CD0042909D0082908D15068C0F374
:100BD0008340801C102803D9102005E00C48704782
:100BE0005068C0F38340801C5168C90308D5516820
:100BF000C1F34041491C064A5043B0FBF1F0704735
:100C000004494843704700000010024000127A0077
:100C10000024F40000093D002DE9F84F0446002CA3
:100C20000ED02078CD4DC00753D06868C0F3810046
:100C300001280BD06868C0F38100022803D00CE0C3
:100C40000120BDE8F88F6868C00306D528688003D6
:100C50003FD5606870BB0120F3E76068B0F5803F66
:100C600010D0B0F5A02F12D0286820F48030286072
:100C7000286820F4802028606068E0B1FFF71AFE41
:100C8000064614E0286840F480302860F4E72868BD
:100C900040F480202860286840F480302860EBE72A
:100CA000FFF708FE801B642801D90320C9E72868E4
:100CB0008003F5D50DE0FFF7FDFD064606E0FFF7E2
:100CC000F9FD801B642801D90320BAE72868800356
:100CD000F5D42078DFF8888280074FF0010A4FF0C2
:100CE000000945D5686810F00C0F07D06868C0F39C
:100CF0008100022812D16868C0030FD428688007D9
:100D000004D52069012801D001209AE7286861698B
:100D100020F0F80040EAC100286029E02069B8B15D
:100D2000C8F800A0FFF7C6FD064606E0FFF7C2FDC3
:100D3000801B022801D9032083E728688007F5D5A6
:100D40002868616920F0F80040EAC10028600FE0DF
:100D5000C8F80090FFF7AEFD064606E0FFF7AAFDD3
:100D6000801B022801D903206BE728688007F5D48F
:100D70002078000723D57B48A16981B1C0F800A085
:100D8000FFF798FD064606E0FFF794FD801B02285A
:100D900001D9032055E7686A8007F5D50FE0C0F850
:100DA0000090FFF787FD064606E0FFF783FD801BF6
:100DB000022801D9032044E7686A8007F5D4207827
:100DC000400769D50026E869C00008D4E86940F00A
:100DD0008050E861E86900F0805000900126DFF85B
:100DE00088B1DBF80000C00514D4DBF8000040F443
:100DF0008070CBF80000FFF75DFD074606E0FFF7C7
:100E000059FDC01B022801D903201AE7DBF80000B6
:100E1000C005F4D5E068012811D0052814D0286A4F
:100E200020F001002862286A20F004002862E068AF
:100E300041F2883BE0B1FFF73DFD074614E0286A28
:100E400040F001002862F2E7286A40F004002862BE
:100E5000286A40F001002862E9E7FFF72BFDC01B7C
:100E6000584501D90320ECE6286A8007F5D50DE046
:100E7000FFF720FD074606E0FFF71CFDC01B5845A5
:100E800001D90320DDE6286A8007F5D4012E03D1BD
:100E9000E86920F08050E861E069A0B36968C1F3B7
:100EA0008101022946D0022805D0C8F86090FFF7DA
:100EB00001FD04463AE0C8F86090FFF7FBFC0646E7
:100EC00006E0FFF7F7FC801B022801D90320B8E6F3
:100ED00028688001F5D4206AB0F5803F05D16868A4
:100EE000A16820F4003008436860D4E90801084391
:100EF000696821F4741108436860C8F860A0FFF7BE
:100F0000D9FC044607E026E0FFF7D4FC001B0228CA
:100F100001D9032095E628688001F5D51BE0FFF78D
:100F2000C9FC001B022801D903208AE62868800139
:100F3000F5D410E001280CD06868226A00F48031F2
:100F4000914204D1616A00F47010884203D00120FC
:100F500077E6012075E6002073E6000000100240ED
:100F6000000042428004424200700040704700008E
:100F700001490248FFF7E8B9003001402400002091
:100F800001490248FFF7E0B9003800407C0000202A
:100F900070B50446002C03D0606A002510B106E04D
:100FA000012070BD6068B0F5827F00D0E5614FF42C
:100FB000005694F8510020B984F85050204600F0B3
:100FC00047F8022084F851002068016821F04001B0
:100FD0000160A088218900F4827001F40441084373
:100FE000A18901F400610843217C01F0020108435A
:100FF000217D01F001010843218B01F400710843B8
:10100000217F01F03801084394F8201001F080019D
:101010000843218D01F40051084321680860A0694C
:10102000042101EA104021684860A06AB04203D15F
:10103000A08D216880B208612068C16921F4006137
:10104000C1616565012084F85100002070BD000079
:1010500070B586B000240294039404940594244A45
:101060000168244891421BD1816941F004018161EA
:10107000816901F004010191816941F4805181612C
:10108000806900F4805001901B49486840F0E0609E
:1010900020F001004860194DA0200290402617E082
:1010A000174A914222D1816941F008018161816929
:1010B00001F008010191C16941F48041C161C06939
:1010C00000F4804001900F4D4FF420400290161420
:1010D000022003900320059002A92846FFF70AFB8F
:1010E0000296039402A92846FFF704FB06B070BDE0
:1010F00000300140001002400000014000080140A3
:1011000000380040000C014010B5401EB0F1807F57
:1011100001D3012010BD4FF0E02460610F21601762
:1011200001F04AFA0020A06107202061002010BDD4
:1011300010B590B014210BA8FFF77CF8282101A866
:10114000FFF778F80120019000040290410003911C
:101150000224089409904FF450100A9001A8FFF758
:101160005BFD08B100F099FA0F200B900C94002061
:101170000D904FF480610E910F9003210BA8FFF7A3
:1011800049FC002801D000F088FA10B010BD70476B
:1011900070B5044620680C3050E8001F21F0C001F3
:1011A00040E80012002AF5D1206840691546000683
:1011B00015D52068143050E8001F21F0800140E868
:1011C0000012002AF5D1A06B48B1C563A06BFFF7F0
:1011D000E3F820B1A06BFFF717F9202805D0E584CC
:1011E000202084F84100002070BD1020606403209E
:1011F00070BD000000680349884202D1024800F037
:101200003ABF70470044004068010020F8B504462A
:1012100022681068D168536900F00F06002E08D1CB
:10122000850606D58D0604D52046BDE8F84001F0B8
:10123000BEB80025002E66D003F0010601F49077B9
:10124000374360D0C20705D0CA0503D5626C42F0AF
:1012500001026264420705D5DA0703D0626C42F0EE
:1012600002026264820705D5DA0703D0626C42F09D
:1012700004026264020707D501F02002324303D062
:10128000626C42F008026264626C002A31D080060F
:1012900004D5880602D5204601F089F82068406907
:1012A000C0F38010616C090700D438B3204601F008
:1012B0003CF82068406940061CD52068143050E88E
:1012C000001F21F0400140E80012002AF5D1E06B38
:1012D00060B15949C163E06BFFF784F8002808D07A
:1012E000E06BC16B01B0BDE8F04008472046FFF756
:1012F00081FFF8BD2046FFF77DFFF8BD2046FFF7D0
:1013000079FF6564F8BD236B012B7DD1C3067BD5C6
:10131000CB067ED510685068009050694FF02003CE
:1013200040064FF0020643D5E16B0868406880B282
:101330000028E7D0A28D8242E4D9E0858869202880
:101340002DD020680C3050E8001F21F4807140E857
:101350000012002AF5D12068143050E8001F21F057
:10136000010140E80012002AF5D12068143050E84D
:10137000001F21F0400140E80012002AF5D184F856
:101380004230256320680C3050E8001F21F0100126
:1013900040E80012002AF5D1E06BFEF7FDFF66631E
:1013A000A08DE18D401A81B22046FFF7F0FEF8BD16
:1013B000A08DE18D401A81B2E08D0028F7D0002980
:1013C000F5D020680C3050E8002F22F4907240E8ED
:1013D0000027002FF5D12068143050E8002F22F0AC
:1013E000010240E80027002FF5D184F84230256340
:1013F00020680C3050E8002F22F0100240E8002353
:10140000002BF5D1666300E003E02046FFF7BFFE46
:10141000F8BD020606D50A0604D52046BDE8F84008
:1014200001F07EB84006F3D54806F1D52046BDE868
:10143000F84000F0A1BF00008522000870B5044606
:10144000002C04D094F84100002510B106E00120E2
:1014500070BD84F84050204600F024F8242084F821
:1014600041002068C16821F40051C160204601F0AC
:1014700003F82068016921F4904101612068416905
:1014800021F02A0141612068C16841F40051C16026
:101490006564202084F8410084F8420065630020E0
:1014A00070BD000070B586B0064600240294039417
:1014B0000494059426493068884247D125498869B3
:1014C00040F004008861886900F004000190C86958
:1014D00040F40030C861C86900F4003001904869E8
:1014E00040F001004861486900F0010001900420CB
:1014F0000290022003900320059002A91648FFF7EE
:10150000F9F8174D1548286010206860AC608020FD
:10151000E8602C616C61AC618001E8612846FFF7EE
:101520001BF808B100F0B9F8B5636E620022012122
:101530001120FFF73DFA1120FFF72CFA00220121BC
:101540002620FFF735FA2620FFF724FA06B070BDF3
:1015500000440040001002400008014080000240AA
:101560001C01002070470000F7B5044694F84100C4
:10157000202801D00220FEBD019999B392B394F8BE
:101580004000012831D0012084F840002162A2846B
:10159000E28400256564212084F84100A36B14488F
:1015A0009862A36B1348D862A36B13489863A06B2F
:1015B000C56326681346361D3246A06BFFF70EF84A
:1015C00021686FF04000086084F8405020681430B3
:1015D00050E8001F41F0800140E80012002AF5D1D8
:1015E0000020FEBDFFE70120FBE70220F9E7000035
:1015F000DF22000821230008952200080068064920
:10160000884208D105480068016821F001010160A5
:10161000034800F018BD7047004400401C01002042
:10162000680100207047000010B50C480A490160AD
:101630004FF46121416000218160C1600161082295
:1016400042618161C161FFF7F9FE002803D0BDE866
:10165000104000F022B810BD00440040D40000202B
:101660000148FEF7D3BE00001C01002030B590F801
:1016700048500124AC40456C6C600468636043686A
:10168000102B04D0036899600068C26030BD036805
:101690009A600068C16030BD704772B6FEE7FEE731
:1016A000FEE77047704700007FB50D46144619A34A
:1016B00006CBCDE9021207236A4602A900F074F8AE
:1016C00030B39DF802009DF8031040EA012000B2FB
:1016D00000EB80004000C11700EB11600012288071
:1016E0009DF805009DF80610000240EA01409DF8B3
:1016F00004100843C0F3160100F40000081A00EBC0
:10170000C000502190FBF1F02060012004B070BDBA
:101710000020FBE7E00AFFFFFFFFFF001CB51446B7
:1017200008A31B6801938DF8051003236A4601A9DD
:1017300000F03AF820B19DF80200207001201CBD95
:1017400000201CBD8000FF0070B500F0BDF9134DF6
:1017500095F88611C9B1012185F88711BFF35F8F14
:1017600080F310880E48FFF713FD064600F0ACF931
:1017700004467EB1284600F07EFC002085F88701F3
:10178000BFF35F8F84F3108870BDBFF35F8F80F36A
:10179000108870BD014800F043FCF1E768010020AB
:1017A000D4000020704700002DE9F04F85B00F46AF
:1017B00090469946202807D237B1B8F1000F03D0E0
:1017C000102805D22D4C04E0002005B0BDE8F08FB4
:1017D0002B4C0146684600F017F9DDE90001CDE920
:1017E0000301D4F800A000F099FC0646BDF810B043
:1017F000002259460398FFF755F8002517E000F03E
:101800008DFC801B642821D2A0688007F7D5785D05
:10181000207304E000F082FC801B642816D2A068CC
:10182000C007F7D0E06808F805006D1CEDB24D4523
:10183000EAD304E000F072FC801B642806D2A068A2
:101840000006F7D4A06810F0600F0FD001225946AF
:101850000398FFF727F8206820F040002060E06838
:10186000A0680290C4F800A00020AEE7012259460B
:101870000398FFF717F80120A7E7000000300140A8
:101880000038004010B5FFF71BF8BDE8104000F02D
:101890005FBC000010B5164B586800F00C00154CEA
:1018A000154900280ED0620004280DD008280DD05C
:1018B0000C605868114AC0F30310105C0A68C240FB
:1018C0000A6010BD0C60F4E70A60F2E75868C0F3E4
:1018D00000445868C0F340400CB1C24000E0084AE0
:1018E0005868C0F38340801C42430A60E1E700006F
:1018F0000010024000127A00000000202C26000890
:1019000000093D0072B600204FF0E02108614861F7
:101910008861421E810001F1E021C1F88021C1F8F7
:101920008022401CC0B20828F4D31148016841F459
:10193000700101600F48016841F0010101604168D8
:101940000D4A1140416001680C4A11400160016874
:1019500021F480210160416821F4FE0141604FF4CF
:101960001F0181600249C0038039086062B6704778
:1019700088ED00E0001002400000FFF8FFFFF6FED7
:101980004FF080400169C90704D06FF00101016187
:1019900000F002B87047000038B5684600F0FAFB66
:1019A00001460098142801D8012200E000221348C3
:1019B00000F086FA00281CDB104901EB8002C0EB26
:1019C0000010B2F8682100EB400001EB800192B2F8
:1019D0000B48FFF7C9FD68B90A4C20680068C007CA
:1019E00008D0064800F064FB2068016821F004017B
:1019F000016038BD014800F04BFB38BD6801002094
:101A0000D40000201C0100200CB500220092ADF88B
:101A10000420202903D3DDE9001206C00CBD074ACB
:101A2000515CA2F58072491E02EBC10106C9CDE9E5
:101A30000012DDE9001206C00CBD000044270008BA
:101A400010B586B00020029004901E48816941F0D4
:101A500004018161816901F004010191816941F012
:101A600008018161816901F008010191816941F0FA
:101A700010018161816901F010010191816941F0DA
:101A800020018161806900F0200001900120039015
:101A900003200590002421466846FFF7B5FFBDF8F6
:101AA000041001220098FEF7FDFEBDF8040002902C
:101AB00002A90098FEF71EFE641CE4B2202CEAD3B3
:101AC00006B010BD00100240EFF3108072B6BFF3F5
:101AD0005F8F704770B505464FF6FF70002341F2E7
:101AE00021040EE0EA5C80EA02200022060402D50E
:101AF00084EA400000E0400080B2521C082AF5D37E
:101B00005B1C8B42EED370BD2DE9F05F0446DDE92E
:101B10000ACADDE90C95DDE90E87109E002C15D070
:101B2000B8F1000F12D08FB10C2E01D0202E0DD1A4
:101B3000202E07D00020C3F3400B584506D10C2EB1
:101B400002D006E00120F6E7580702D50020BDE8E4
:101B5000F09F06EB86001430814201D20020F6E7A8
:101B60000C2E01D1C5F30B05A52121705A216170FE
:101B7000A070E270237184F805C05146A01D00F0EA
:101B800013FD494604F10A0000F00EFD294604F158
:101B90000E0000F009FD1225002008E038F81020A2
:101BA000691C6255120A4D1C6254401CC0B2B042FE
:101BB000F4D300200BE057F820106A1C61550D0A81
:101BC000531CA554090C5D1CE154401CC0B2B0422A
:101BD000F1D329462046FFF77DFF0146681C615579
:101BE000090A421C21541046B1E700002DE9F84FC4
:101BF000044600F093FAC4F8C4004FF00008C4F89B
:101C0000C080384F386808B1082000E0002084F810
:101C1000C80000254FF0010940F2D66ACDF80080D7
:101C200009FA05F600F07AFAD4F8C410401A5045C3
:101C300006D394F8C80040F0100084F8C80031E0E2
:101C4000386830422AD16A4602212846FFF766FDED
:101C500050B19DF8000080080DD094F8C80040F005
:101C6000040084F8C80019E094F8C80040F00200AD
:101C700084F8C80012E01C4800EB8502403800EBF5
:101C800045012846FFF710FD20B39DF80000C0076E
:101C900004D0D4F8C0003043C4F8C0006D1CEDB2CD
:101CA000202DBBD3D4F8C000401C05D094F8C80048
:101CB00040F0010084F8C8000B494022403920461A
:101CC000FEF79FFA04F14000BDE8F84F8022064974
:101CD000FEF797BA94F8C80040F0020084F8C800F4
:101CE000DCE7000020000020100400202DE9F84F60
:101CF0004B4E4FF00008C6F800800024494DDFF835
:101D000028914FEA052A09F1400B012729F81450C0
:101D10004BF824A024220021204600F038FC20B9F2
:101D2000316807FA04F008433060641CE4B2202CE8
:101D3000ECD34FF47A70FEF787FC0024CDF80080D6
:101D400081220021204600F022FC05460022A42129
:101D5000204600F01CFC05400822A521204600F08A
:101D600016FC00EA05094022A621204600F00FFCDF
:101D700000EA09058022A721204600F008FC00EABD
:101D800005098822A521204600F001FC00EA09058A
:101D90006A4600212046FFF7C1FC28409DF800104C
:101DA00001F0E701812928D0002505406A46A521D8
:101DB0002046FFF7B3FC28409DF8001088291ED06C
:101DC000002505406A46A6212046FFF7A7FC2840CB
:101DD0009DF80010402914D0002505406A46A7212F
:101DE0002046FFF79BFC00EA05019DF800008028D3
:101DF00009D00020084040B10CE00125D5E70125BD
:101E0000DFE70125E9E70120F4E7316807FA04F08C
:101E100008433060641CE4B2202C8FD3BDE8F88FF7
:101E2000200000200080FFFFD003002030B590F894
:101E300086214FF0FF34002A02D190F887210AB1A1
:101E4000204630BD0022831893F87051012D03D035
:101E500093F87031022B09D100EB8203D0F8805146
:101E6000D3F87431AB4201D1204630BD521C022A56
:101E7000E9DB0022831893F8703123B1521C022A47
:101E8000F8DB204630BDD0F8804100EB8203C3F878
:101E900074411044012480F87041D3F87401086043
:101EA000104630BD10B504464FF4CE712046FEF703
:101EB000C1F9FF2084F884010120C4F8800110BD1D
:101EC0002DE9F0414FF0FF373C4600290DD0D0F806
:101ED0007C310B44C0F87C31D0F87C315B1CC0F8FD
:101EE0008031012904D81AB108E03846BDE8F081F4
:101EF00090F8883143F0800380F888310023002671
:101F0000C51895F870C1BCF1020F0BD100EB830C22
:101F1000D0F87C81DCF874C1C44501D11C4601E0D5
:101F200085F870615B1C022BEADB90F98431002B91
:101F300013DB90F8883143F0200380F88831D0F823
:101F40007C3190F9845100EB8505D5F874515B1B09
:101F5000022B02D3012380F8863190F98431002BC3
:101F600008DA90F886312BB990F8873113B90AB1A5
:101F7000002C1BDA002C03DB00EB040383F87061F8
:101F80000DDA90F98431002B09DA90F8863133B9F3
:101F90002AB190F8882142F0100280F88821D0F808
:101FA00090211144C0F8901138469FE7D0F8902155
:101FB000491E1144C0F890110321021982F87011D2
:101FC00080F8844180F8856120468FE730B502298A
:101FD00004D2431893F87041012C01D0002030BD89
:101FE00000EB8101D0F88051D1F87441AC4202D1AC
:101FF0000AB1B42A0DD9002183F8701100F5C4701C
:10200000C168491CC160017841F0100101700020D5
:1020100030BDC1F86821022083F87001012030BD75
:1020200090F984210021002A07DB90F9843100F522
:10203000B8729954FF2280F8842100F28510417013
:1020400081700170704790F98411002912DB90F9BA
:102050008431002100F5B8729954FF2280F8842160
:1020600090F8852122B1D0F88C21521CC0F88C2127
:1020700080F88511704700F5C4700169491C016141
:10208000017841F040010170012100F8021C704705
:1020900000F5C4700169491C01618168491C8160B7
:1020A000017841F040010170012100F8021C7047E5
:1020B00090F98411002902DB012180F88511704715
:1020C00070B5FFF7E7FB104D104C2868A04204D311
:1020D000B0FBF4F104FB110008B1FFF7DEFA0C4885
:1020E000016841F0807101600A49002048600A6877
:1020F00042F001020A600849086048602868B0FBA5
:10210000F4F0886070BD00000000002040420F0025
:10211000FCED00E0001000E01000002010B5EFF32F
:10212000108172B6BFF35F8F074842680368074C9F
:102130006468BFF35F8F81F310888068E11AB1FB98
:10214000F0F0104410BD000010000020001000E06E
:1021500010B50E488168002916D00D4A52680368F0
:10216000D21AB2FBF1F1EFF3108272B6BFF35F8FB8
:102170000368846801FB04330360436819444160C9
:10218000BFF35F8F82F3108810BD000010000020A5
:10219000001000E070B50446FFF7C0FF0C4DEB687F
:1021A000C11A01200022002908DD4FF4FA62B1FBB8
:1021B000F2F0401CB1FBF2F602FB161200EB4001FC
:1021C000C1EBC01103EB0111E960226070BD00009A
:1021D00010000020F8B5FEF7CFFC0446264D6868D5
:1021E00010F4E06F00D06400244EB4FBF6F006FB60
:1021F000104008B1FFF751FA0021E86940F00100F2
:10220000E861E86900F001000090286940F00100F1
:102210002861286920F0010028618020C505286018
:10222000B4FBF6F0401EA86240F2CF70E86269622B
:10223000012068612961E860002201211C20FEF76D
:10224000B7FB1C20FEF781FB1C20FEF7A3FBEFF37E
:10225000108472B6BFF35F8FFFF760FF084900F587
:10226000FA60C860286840F001002860BFF35F8F03
:1022700084F31088F8BD00000010024040420F00B7
:102280001000002010B5406A0021C185C184FEF70E
:10229000B1FF10BD70B5446A20684069C0F3C0103A
:1022A00094F841100025212904D118B1E584204675
:1022B00000F06FF820684069C0F3801094F8421075
:1022C000222904D118B1E585204600F02EF8606C73
:1022D00040F0100060642046FEF78CFF70BD10B522
:1022E0000146486A09680968890616D40021C18434
:1022F0000168143151E8002F22F0800241E80023E8
:10230000002BF5D101680C3151E8002F42F040025A
:1023100041E80023002BF5D110BDFFF76FF910BD88
:1023200010B5406AFFF77EF910BD01680C3151E825
:10233000002F22F4907241E80023002BF5D10168B0
:10234000143151E8002F22F0010241E80023002B54
:10235000F5D1016B012909D101680C3151E8002F39
:1023600022F0100241E80023002BF5D1202180F853
:10237000421000210163704710B50168CA6822F05D
:102380004002CA60202180F84110FFF737F9002091
:1023900010BD01680C3151E8002F22F0C00241E865
:1023A0000023002BF5D1202180F84110704708B59B
:1023B00090F84210222901D0022008BD82684FF413
:1023C00080539A4201D1016921B1816A9A421DD09C
:1023D00052B10BE0816A02685268C2F308020A80B7
:1023E000816A891C816209E002697AB102685268D7
:1023F00002F07F020A70816A491C8162C18D491E08
:102400000904090CC18505D0002008BD0268526886
:102410000A70F0E70168CA6822F02002CA60016809
:10242000CA6822F48072CA6001684A6922F0010217
:102430004A61202180F8421000214163026B012A89
:1024400003D0FFF78FF8002008BD016301680C314D
:1024500051E8002F22F0100241E80023002BF5D1B3
:1024600001680A68D20602D50A6849680091818D20
:10247000FEF78DFEE7E7000070B5044620680169AD
:10248000E26821F4405111430161A16820690143D0
:10249000606901432068C26841F20C639A430A43B1
:1024A000C26020684169A26921F440711143416111
:1024B0001A492068884202D1FEF76EFB01E0FEF760
:1024C0005BFB61688B0F8A001921A0FB0101FDF7FE
:1024D00057FE01466422B0FBF2F06FF01803584338
:1024E00001EB8000322303EB0010B0FBF2F000F0B0
:1024F000F005B1FBF2F005EB0015B1FBF2F06FF067
:102500001806704301EB800003EB0010B0FBF2F003
:10251000216800F00F002844886070BD0038014039
:1025200090F84110212901D0022070478168B1F54F
:10253000805F01D1016961B1016A4A1C02620268CF
:1025400009785160C18C491E0904090CC1840AD064
:1025500013E0016A02680988C1F308015160016A49
:10256000891C0162EEE70168CA6822F08002CA6035
:102570000068C16841F04001C16000207047000060
:102580000148FEF743BE0000D4000020FEE71CB562
:10259000002301938DF805108DF8062003236A4669
:1025A00001A9FFF701F91CBD01700A0A42700A0C6B
:1025B0008270090EC17070470907090E002804DBFC
:1025C00000F1E02080F80014704700F00F0000F1E7
:1025D000E02080F8141D704702E008C8121F08C1EF
:1025E000002AFAD170477047002001E001C1121F94
:1025F000002AFBD170470000FEF738F8FFF760FDB6
:10260000FFF774FB0748FFF74DFC01220321064842
:10261000FEF748F9FFF7DEFDFFF796F8FDF736FE07
:10262000FAE70000680100200008014000000000F7
:102630000000000001020304060708090000000072
:1026400001020304000C014020000000000C0140C6
:1026500010000000000C01400800000000140140C0
:1026600004000000001001400010000000100140B4
:1026700000080000000C014040000000000C014078
:1026800080000000000C014000010000000C01402F
:102690000002000000100140010000000010014095
:1026A000020000000010014004000000000801408A
:1026B00000800000001001400004000000100140F4
:1026C000080000000008014000020000000801406E
:1026D0000001000000100140000200000010014055
:1026E00000010000001001408000000000100140C7
:1026F00040000000000C014002000000000C0140FE
:102700000100000000100140200000000010014006
:102710001000000000080140000400000008014013
:10272000000800000008014000100000000C0140FB
:1027300000080000000C014000040000000C0140F3
:10274000040000000102030405060708090A0B0C37
:102750000D0E0F101112131415161718191A1B1C31
:102760001D1E1F20842700080000002024000000F8
:10277000D8250008A8270008240000206C0C0000C1
:10278000E825000800127A00010000001000000097
:102790000000000000000000000000000000000039
:0827A000000000000000000031
:0400000508000149A5
:00000001FF
